{
  "contractName": "Processor",
  "abi": [
    {
      "inputs": [
        {
          "internalType": "address payable",
          "name": "_sushiMaker",
          "type": "address"
        },
        {
          "internalType": "address payable",
          "name": "_myFee",
          "type": "address"
        },
        {
          "internalType": "address",
          "name": "_governance",
          "type": "address"
        }
      ],
      "stateMutability": "nonpayable",
      "type": "constructor"
    },
    {
      "inputs": [],
      "name": "fee",
      "outputs": [
        {
          "internalType": "uint256",
          "name": "",
          "type": "uint256"
        }
      ],
      "stateMutability": "view",
      "type": "function"
    },
    {
      "inputs": [],
      "name": "governance",
      "outputs": [
        {
          "internalType": "address",
          "name": "",
          "type": "address"
        }
      ],
      "stateMutability": "view",
      "type": "function"
    },
    {
      "inputs": [],
      "name": "myFee",
      "outputs": [
        {
          "internalType": "address payable",
          "name": "",
          "type": "address"
        }
      ],
      "stateMutability": "view",
      "type": "function"
    },
    {
      "inputs": [],
      "name": "sushiMaker",
      "outputs": [
        {
          "internalType": "address payable",
          "name": "",
          "type": "address"
        }
      ],
      "stateMutability": "view",
      "type": "function"
    },
    {
      "stateMutability": "payable",
      "type": "receive"
    },
    {
      "inputs": [],
      "name": "distribute",
      "outputs": [],
      "stateMutability": "payable",
      "type": "function"
    },
    {
      "inputs": [
        {
          "internalType": "uint256",
          "name": "_fee",
          "type": "uint256"
        }
      ],
      "name": "changeFee",
      "outputs": [
        {
          "internalType": "bool",
          "name": "",
          "type": "bool"
        }
      ],
      "stateMutability": "nonpayable",
      "type": "function"
    }
  ],
  "bytecode": "0x6080604052601460025534801561001557600080fd5b506040516106553803806106558339818101604052606081101561003857600080fd5b81019080805190602001909291908051906020019092919080519060200190929190505050826000806101000a81548173ffffffffffffffffffffffffffffffffffffffff021916908373ffffffffffffffffffffffffffffffffffffffff16021790555081600160006101000a81548173ffffffffffffffffffffffffffffffffffffffff021916908373ffffffffffffffffffffffffffffffffffffffff16021790555080600360006101000a81548173ffffffffffffffffffffffffffffffffffffffff021916908373ffffffffffffffffffffffffffffffffffffffff160217905550505050610524806101316000396000f3fe6080604052600436106100595760003560e01c80632bbdf75b1461006d5780635aa6e675146100ae5780636a1db1bf146100ef578063ddca3f4314610140578063e4fc6b6d1461016b578063f49e0d7a1461017557610068565b36610068576100666101b6565b005b600080fd5b34801561007957600080fd5b506100826102a7565b604051808273ffffffffffffffffffffffffffffffffffffffff16815260200191505060405180910390f35b3480156100ba57600080fd5b506100c36102cb565b604051808273ffffffffffffffffffffffffffffffffffffffff16815260200191505060405180910390f35b3480156100fb57600080fd5b506101286004803603602081101561011257600080fd5b81019080803590602001909291905050506102f1565b60405180821515815260200191505060405180910390f35b34801561014c57600080fd5b50610155610478565b6040518082815260200191505060405180910390f35b6101736101b6565b005b34801561018157600080fd5b5061018a61047e565b604051808273ffffffffffffffffffffffffffffffffffffffff16815260200191505060405180910390f35b6000349050600060646002546064038302816101ce57fe5b049050600160009054906101000a900473ffffffffffffffffffffffffffffffffffffffff1673ffffffffffffffffffffffffffffffffffffffff166108fc8284039081150290604051600060405180830381858888f1935050505015801561023b573d6000803e3d6000fd5b5060008054906101000a900473ffffffffffffffffffffffffffffffffffffffff1673ffffffffffffffffffffffffffffffffffffffff166108fc829081150290604051600060405180830381858888f193505050501580156102a2573d6000803e3d6000fd5b505050565b60008054906101000a900473ffffffffffffffffffffffffffffffffffffffff1681565b600360009054906101000a900473ffffffffffffffffffffffffffffffffffffffff1681565b6000600360009054906101000a900473ffffffffffffffffffffffffffffffffffffffff1673ffffffffffffffffffffffffffffffffffffffff163373ffffffffffffffffffffffffffffffffffffffff16146103b6576040517f08c379a000000000000000000000000000000000000000000000000000000000815260040180806020018281038252600b8152602001807f4e6f7420416c6c6f77656400000000000000000000000000000000000000000081525060200191505060405180910390fd5b6064821061040f576040517f08c379a00000000000000000000000000000000000000000000000000000000081526004018080602001828103825260258152602001806104a56025913960400191505060405180910390fd5b60008211610468576040517f08c379a00000000000000000000000000000000000000000000000000000000081526004018080602001828103825260258152602001806104ca6025913960400191505060405180910390fd5b8160028190555060019050919050565b60025481565b600160009054906101000a900473ffffffffffffffffffffffffffffffffffffffff168156fe56616c75652077696c6c20627265616b207468652050726f636573736f722053432028302956616c75652077696c6c20627265616b207468652050726f636573736f7220534320283129a26469706673582212200c81b85b6487e20acc3b6598961c933dee49a3ad643ec2410854f6c57a24b69c64736f6c634300060c0033",
  "immutableReferences": {},
  "source": "// SPDX-License-Identifier: MIT\npragma solidity 0.6.12;\n\nlibrary SafeMath {\n    function add(uint256 a, uint256 b) internal pure returns (uint256) {\n        uint256 c = a + b;\n        require(c >= a, \"SafeMath: addition overflow\");\n\n        return c;\n    }\n\n    function sub(uint256 a, uint256 b) internal pure returns (uint256) {\n        return sub(a, b, \"SafeMath: subtraction overflow\");\n    }\n\n    function sub(\n        uint256 a,\n        uint256 b,\n        string memory errorMessage\n    ) internal pure returns (uint256) {\n        require(b <= a, errorMessage);\n        uint256 c = a - b;\n\n        return c;\n    }\n\n    function mul(uint256 a, uint256 b) internal pure returns (uint256) {\n        if (a == 0) {\n            return 0;\n        }\n\n        uint256 c = a * b;\n        require(c / a == b, \"SafeMath: multiplication overflow\");\n\n        return c;\n    }\n\n    function div(uint256 a, uint256 b) internal pure returns (uint256) {\n        return div(a, b, \"SafeMath: division by zero\");\n    }\n\n    function div(\n        uint256 a,\n        uint256 b,\n        string memory errorMessage\n    ) internal pure returns (uint256) {\n        // Solidity only automatically asserts when dividing by 0\n        require(b > 0, errorMessage);\n        uint256 c = a / b;\n\n        return c;\n    }\n}\n\ncontract Processor {\n    address payable public sushiMaker;\n    address payable public myFee;\n    \n    uint256 public fee = 20;\n    address public governance;\n\n    constructor(\n        address payable _sushiMaker, \n        address payable _myFee,\n        address _governance\n        ) public {\n        sushiMaker = _sushiMaker;\n        myFee = _myFee; \n        governance=_governance;       \n    }\n\n     receive() external payable {\n        distribute();\n    }\n\n    function distribute() public payable {\n        uint256 weiAmount = msg.value;\n        uint256 sushiMakerAmount = weiAmount*(100-fee)/100;\n        myFee.transfer(weiAmount-sushiMakerAmount);\n        sushiMaker.transfer(sushiMakerAmount);\n    }\n\n    function changeFee(uint256 _fee) public returns(bool) {\n        require(msg.sender == governance, \"Not Allowed\");\n        require(_fee < 100, \"Value will break the Processor SC (0)\");\n        require(_fee > 0, \"Value will break the Processor SC (1)\");\n        \n        fee = _fee;\n        \n        return true;\n\n    }\n    \n    \n}",
  "sourcePath": "/Users/developer/Desktop/HOME/Lemonade/FrontEnds/App/Def/lemonade-app/src/contracts/Processor.sol",
  "compiler": {
    "name": "solc",
    "version": "0.6.12+commit.27d51765.Emscripten.clang"
  },
  "schemaVersion": "3.4.4",
  "updatedAt": "2022-04-29T01:04:05.672Z",
  "networkType": "ethereum",
  "devdoc": {
    "kind": "dev",
    "methods": {},
    "version": 1
  },
  "userdoc": {
    "kind": "user",
    "methods": {},
    "version": 1
  }
}