{
  "contractName": "Migrator",
  "abi": [
    {
      "inputs": [
        {
          "internalType": "address",
          "name": "_chef",
          "type": "address"
        },
        {
          "internalType": "address",
          "name": "_oldFactory",
          "type": "address"
        },
        {
          "internalType": "contract IUniswapV2Factory",
          "name": "_factory",
          "type": "address"
        },
        {
          "internalType": "uint256",
          "name": "_notBeforeBlock",
          "type": "uint256"
        }
      ],
      "stateMutability": "nonpayable",
      "type": "constructor"
    },
    {
      "inputs": [],
      "name": "chef",
      "outputs": [
        {
          "internalType": "address",
          "name": "",
          "type": "address"
        }
      ],
      "stateMutability": "view",
      "type": "function"
    },
    {
      "inputs": [],
      "name": "desiredLiquidity",
      "outputs": [
        {
          "internalType": "uint256",
          "name": "",
          "type": "uint256"
        }
      ],
      "stateMutability": "view",
      "type": "function"
    },
    {
      "inputs": [],
      "name": "factory",
      "outputs": [
        {
          "internalType": "contract IUniswapV2Factory",
          "name": "",
          "type": "address"
        }
      ],
      "stateMutability": "view",
      "type": "function"
    },
    {
      "inputs": [],
      "name": "notBeforeBlock",
      "outputs": [
        {
          "internalType": "uint256",
          "name": "",
          "type": "uint256"
        }
      ],
      "stateMutability": "view",
      "type": "function"
    },
    {
      "inputs": [],
      "name": "oldFactory",
      "outputs": [
        {
          "internalType": "address",
          "name": "",
          "type": "address"
        }
      ],
      "stateMutability": "view",
      "type": "function"
    },
    {
      "inputs": [
        {
          "internalType": "contract IUniswapV2Pair",
          "name": "orig",
          "type": "address"
        }
      ],
      "name": "migrate",
      "outputs": [
        {
          "internalType": "contract IUniswapV2Pair",
          "name": "",
          "type": "address"
        }
      ],
      "stateMutability": "nonpayable",
      "type": "function"
    }
  ],
  "bytecode": "0x60806040527fffffffffffffffffffffffffffffffffffffffffffffffffffffffffffffffff60045534801561003457600080fd5b50604051610c61380380610c618339818101604052608081101561005757600080fd5b8101908080519060200190929190805190602001909291908051906020019092919080519060200190929190505050836000806101000a81548173ffffffffffffffffffffffffffffffffffffffff021916908373ffffffffffffffffffffffffffffffffffffffff16021790555082600160006101000a81548173ffffffffffffffffffffffffffffffffffffffff021916908373ffffffffffffffffffffffffffffffffffffffff16021790555081600260006101000a81548173ffffffffffffffffffffffffffffffffffffffff021916908373ffffffffffffffffffffffffffffffffffffffff1602179055508060038190555050505050610aff806101626000396000f3fe608060405234801561001057600080fd5b50600436106100625760003560e01c806305293137146100675780631bd6dfe1146100855780631fc8bc5d146100b957806340dc0e37146100ed578063c45a01551461010b578063ce5494bb1461013f575b600080fd5b61006f6101ad565b6040518082815260200191505060405180910390f35b61008d6101b3565b604051808273ffffffffffffffffffffffffffffffffffffffff16815260200191505060405180910390f35b6100c16101d9565b604051808273ffffffffffffffffffffffffffffffffffffffff16815260200191505060405180910390f35b6100f56101fd565b6040518082815260200191505060405180910390f35b610113610203565b604051808273ffffffffffffffffffffffffffffffffffffffff16815260200191505060405180910390f35b6101816004803603602081101561015557600080fd5b81019080803573ffffffffffffffffffffffffffffffffffffffff169060200190929190505050610229565b604051808273ffffffffffffffffffffffffffffffffffffffff16815260200191505060405180910390f35b60035481565b600160009054906101000a900473ffffffffffffffffffffffffffffffffffffffff1681565b60008054906101000a900473ffffffffffffffffffffffffffffffffffffffff1681565b60045481565b600260009054906101000a900473ffffffffffffffffffffffffffffffffffffffff1681565b60008060009054906101000a900473ffffffffffffffffffffffffffffffffffffffff1673ffffffffffffffffffffffffffffffffffffffff163373ffffffffffffffffffffffffffffffffffffffff16146102ed576040517f08c379a00000000000000000000000000000000000000000000000000000000081526004018080602001828103825260148152602001807f6e6f742066726f6d206d6173746572206368656600000000000000000000000081525060200191505060405180910390fd5b600354431015610365576040517f08c379a00000000000000000000000000000000000000000000000000000000081526004018080602001828103825260148152602001807f746f6f206561726c7920746f206d69677261746500000000000000000000000081525060200191505060405180910390fd5b600160009054906101000a900473ffffffffffffffffffffffffffffffffffffffff1673ffffffffffffffffffffffffffffffffffffffff168273ffffffffffffffffffffffffffffffffffffffff1663c45a01556040518163ffffffff1660e01b815260040160206040518083038186803b1580156103e457600080fd5b505afa1580156103f8573d6000803e3d6000fd5b505050506040513d602081101561040e57600080fd5b810190808051906020019092919050505073ffffffffffffffffffffffffffffffffffffffff16146104a8576040517f08c379a00000000000000000000000000000000000000000000000000000000081526004018080602001828103825260148152602001807f6e6f742066726f6d206f6c6420666163746f727900000000000000000000000081525060200191505060405180910390fd5b60008273ffffffffffffffffffffffffffffffffffffffff16630dfe16816040518163ffffffff1660e01b815260040160206040518083038186803b1580156104f057600080fd5b505afa158015610504573d6000803e3d6000fd5b505050506040513d602081101561051a57600080fd5b8101908080519060200190929190505050905060008373ffffffffffffffffffffffffffffffffffffffff1663d21220a76040518163ffffffff1660e01b815260040160206040518083038186803b15801561057557600080fd5b505afa158015610589573d6000803e3d6000fd5b505050506040513d602081101561059f57600080fd5b810190808051906020019092919050505090506000600260009054906101000a900473ffffffffffffffffffffffffffffffffffffffff1673ffffffffffffffffffffffffffffffffffffffff1663e6a4390584846040518363ffffffff1660e01b8152600401808373ffffffffffffffffffffffffffffffffffffffff1681526020018273ffffffffffffffffffffffffffffffffffffffff1681526020019250505060206040518083038186803b15801561065b57600080fd5b505afa15801561066f573d6000803e3d6000fd5b505050506040513d602081101561068557600080fd5b81019080805190602001909291905050509050600073ffffffffffffffffffffffffffffffffffffffff168173ffffffffffffffffffffffffffffffffffffffff1614156107b457600260009054906101000a900473ffffffffffffffffffffffffffffffffffffffff1673ffffffffffffffffffffffffffffffffffffffff1663c9c6539684846040518363ffffffff1660e01b8152600401808373ffffffffffffffffffffffffffffffffffffffff1681526020018273ffffffffffffffffffffffffffffffffffffffff16815260200192505050602060405180830381600087803b15801561077657600080fd5b505af115801561078a573d6000803e3d6000fd5b505050506040513d60208110156107a057600080fd5b810190808051906020019092919050505090505b60008573ffffffffffffffffffffffffffffffffffffffff166370a08231336040518263ffffffff1660e01b8152600401808273ffffffffffffffffffffffffffffffffffffffff16815260200191505060206040518083038186803b15801561081d57600080fd5b505afa158015610831573d6000803e3d6000fd5b505050506040513d602081101561084757600080fd5b81019080805190602001909291905050509050600081141561086f5781945050505050610ac4565b806004819055508573ffffffffffffffffffffffffffffffffffffffff166323b872dd3388846040518463ffffffff1660e01b8152600401808473ffffffffffffffffffffffffffffffffffffffff1681526020018373ffffffffffffffffffffffffffffffffffffffff1681526020018281526020019350505050602060405180830381600087803b15801561090557600080fd5b505af1158015610919573d6000803e3d6000fd5b505050506040513d602081101561092f57600080fd5b8101908080519060200190929190505050508573ffffffffffffffffffffffffffffffffffffffff166389afcb44836040518263ffffffff1660e01b8152600401808273ffffffffffffffffffffffffffffffffffffffff1681526020019150506040805180830381600087803b1580156109a957600080fd5b505af11580156109bd573d6000803e3d6000fd5b505050506040513d60408110156109d357600080fd5b81019080805190602001909291908051906020019092919050505050508173ffffffffffffffffffffffffffffffffffffffff16636a627842336040518263ffffffff1660e01b8152600401808273ffffffffffffffffffffffffffffffffffffffff168152602001915050602060405180830381600087803b158015610a5957600080fd5b505af1158015610a6d573d6000803e3d6000fd5b505050506040513d6020811015610a8357600080fd5b8101908080519060200190929190505050507fffffffffffffffffffffffffffffffffffffffffffffffffffffffffffffffff600481905550819450505050505b91905056fea2646970667358221220bbad2c173601a393265188be99bd0afe15d5d6a572bcb6d5ab0e1823ab3e237364736f6c634300060c0033",
  "immutableReferences": {},
  "source": "pragma solidity 0.6.12;\n\nimport \"./uniswapv2/interfaces/IUniswapV2Pair.sol\";\nimport \"./uniswapv2/interfaces/IUniswapV2Factory.sol\";\n\n\ncontract Migrator {\n    address public chef;\n    address public oldFactory;\n    IUniswapV2Factory public factory;\n    uint256 public notBeforeBlock;\n    uint256 public desiredLiquidity = uint256(-1);\n\n    constructor(\n        address _chef,\n        address _oldFactory,\n        IUniswapV2Factory _factory,\n        uint256 _notBeforeBlock\n    ) public {\n        chef = _chef;\n        oldFactory = _oldFactory;\n        factory = _factory;\n        notBeforeBlock = _notBeforeBlock;\n    }\n\n    function migrate(IUniswapV2Pair orig) public returns (IUniswapV2Pair) {\n        require(msg.sender == chef, \"not from master chef\");\n        require(block.number >= notBeforeBlock, \"too early to migrate\");\n        require(orig.factory() == oldFactory, \"not from old factory\");\n        address token0 = orig.token0();\n        address token1 = orig.token1();\n        IUniswapV2Pair pair = IUniswapV2Pair(factory.getPair(token0, token1));\n        if (pair == IUniswapV2Pair(address(0))) {\n            pair = IUniswapV2Pair(factory.createPair(token0, token1));\n        }\n        uint256 lp = orig.balanceOf(msg.sender);\n        if (lp == 0) return pair;\n        desiredLiquidity = lp;\n        orig.transferFrom(msg.sender, address(orig), lp);\n        orig.burn(address(pair));\n        pair.mint(msg.sender);\n        desiredLiquidity = uint256(-1);\n        return pair;\n    }\n}",
  "sourcePath": "/Users/developer/Desktop/HOME/Lemonade/FrontEnds/App/Def/lemonade-app/contracts/Migrator.sol",
  "compiler": {
    "name": "solc",
    "version": "0.6.12+commit.27d51765.Emscripten.clang"
  },
  "schemaVersion": "3.4.4",
  "updatedAt": "2022-04-21T17:11:56.274Z",
  "networkType": "ethereum",
  "devdoc": {
    "kind": "dev",
    "methods": {},
    "version": 1
  },
  "userdoc": {
    "kind": "user",
    "methods": {},
    "version": 1
  }
}