{
  "contractName": "SushiMaker",
  "abi": [
    {
      "inputs": [
        {
          "internalType": "contract IUniswapV2Factory",
          "name": "_factory",
          "type": "address"
        },
        {
          "internalType": "address",
          "name": "_bar",
          "type": "address"
        },
        {
          "internalType": "address",
          "name": "_sushi",
          "type": "address"
        },
        {
          "internalType": "address",
          "name": "_weth",
          "type": "address"
        },
        {
          "internalType": "address",
          "name": "_checker",
          "type": "address"
        },
        {
          "internalType": "address",
          "name": "_protocol",
          "type": "address"
        }
      ],
      "stateMutability": "nonpayable",
      "type": "constructor"
    },
    {
      "inputs": [],
      "name": "bar",
      "outputs": [
        {
          "internalType": "address",
          "name": "",
          "type": "address"
        }
      ],
      "stateMutability": "view",
      "type": "function",
      "constant": true
    },
    {
      "inputs": [],
      "name": "checker",
      "outputs": [
        {
          "internalType": "address",
          "name": "",
          "type": "address"
        }
      ],
      "stateMutability": "view",
      "type": "function",
      "constant": true
    },
    {
      "inputs": [],
      "name": "factory",
      "outputs": [
        {
          "internalType": "contract IUniswapV2Factory",
          "name": "",
          "type": "address"
        }
      ],
      "stateMutability": "view",
      "type": "function",
      "constant": true
    },
    {
      "inputs": [],
      "name": "protocol",
      "outputs": [
        {
          "internalType": "address",
          "name": "",
          "type": "address"
        }
      ],
      "stateMutability": "view",
      "type": "function",
      "constant": true
    },
    {
      "inputs": [],
      "name": "sushi",
      "outputs": [
        {
          "internalType": "address",
          "name": "",
          "type": "address"
        }
      ],
      "stateMutability": "view",
      "type": "function",
      "constant": true
    },
    {
      "inputs": [],
      "name": "weth",
      "outputs": [
        {
          "internalType": "address",
          "name": "",
          "type": "address"
        }
      ],
      "stateMutability": "view",
      "type": "function",
      "constant": true
    },
    {
      "inputs": [
        {
          "internalType": "address",
          "name": "token0",
          "type": "address"
        },
        {
          "internalType": "address",
          "name": "token1",
          "type": "address"
        }
      ],
      "name": "convert",
      "outputs": [],
      "stateMutability": "nonpayable",
      "type": "function"
    },
    {
      "inputs": [
        {
          "internalType": "address",
          "name": "_checker",
          "type": "address"
        }
      ],
      "name": "changeChecker",
      "outputs": [],
      "stateMutability": "nonpayable",
      "type": "function"
    },
    {
      "inputs": [
        {
          "internalType": "address",
          "name": "_protocol",
          "type": "address"
        }
      ],
      "name": "changeProtocol",
      "outputs": [],
      "stateMutability": "nonpayable",
      "type": "function"
    }
  ],
  "bytecode": "0x608060405234801561001057600080fd5b5060405161281c38038061281c833981810160405260c081101561003357600080fd5b81019080805190602001909291908051906020019092919080519060200190929190805190602001909291908051906020019092919080519060200190929190505050856000806101000a81548173ffffffffffffffffffffffffffffffffffffffff021916908373ffffffffffffffffffffffffffffffffffffffff16021790555083600260006101000a81548173ffffffffffffffffffffffffffffffffffffffff021916908373ffffffffffffffffffffffffffffffffffffffff16021790555084600160006101000a81548173ffffffffffffffffffffffffffffffffffffffff021916908373ffffffffffffffffffffffffffffffffffffffff16021790555082600360006101000a81548173ffffffffffffffffffffffffffffffffffffffff021916908373ffffffffffffffffffffffffffffffffffffffff16021790555081600460006101000a81548173ffffffffffffffffffffffffffffffffffffffff021916908373ffffffffffffffffffffffffffffffffffffffff16021790555080600560006101000a81548173ffffffffffffffffffffffffffffffffffffffff021916908373ffffffffffffffffffffffffffffffffffffffff16021790555050505050505061260c806102106000396000f3fe608060405234801561001057600080fd5b50600436106100935760003560e01c8063bd1b820c11610066578063bd1b820c14610178578063c45a0155146101dc578063c66dccfd14610210578063cf5303cf14610254578063febb0f7e1461028857610093565b80630a087903146100985780633fc8cef3146100cc5780634dd76ebe146101005780638ce7442614610144575b600080fd5b6100a06102bc565b604051808273ffffffffffffffffffffffffffffffffffffffff16815260200191505060405180910390f35b6100d46102e2565b604051808273ffffffffffffffffffffffffffffffffffffffff16815260200191505060405180910390f35b6101426004803603602081101561011657600080fd5b81019080803573ffffffffffffffffffffffffffffffffffffffff169060200190929190505050610308565b005b61014c6103a6565b604051808273ffffffffffffffffffffffffffffffffffffffff16815260200191505060405180910390f35b6101da6004803603604081101561018e57600080fd5b81019080803573ffffffffffffffffffffffffffffffffffffffff169060200190929190803573ffffffffffffffffffffffffffffffffffffffff1690602001909291905050506103cc565b005b6101e4610775565b604051808273ffffffffffffffffffffffffffffffffffffffff16815260200191505060405180910390f35b6102526004803603602081101561022657600080fd5b81019080803573ffffffffffffffffffffffffffffffffffffffff169060200190929190505050610799565b005b61025c610837565b604051808273ffffffffffffffffffffffffffffffffffffffff16815260200191505060405180910390f35b61029061085d565b604051808273ffffffffffffffffffffffffffffffffffffffff16815260200191505060405180910390f35b600260009054906101000a900473ffffffffffffffffffffffffffffffffffffffff1681565b600360009054906101000a900473ffffffffffffffffffffffffffffffffffffffff1681565b600460009054906101000a900473ffffffffffffffffffffffffffffffffffffffff1673ffffffffffffffffffffffffffffffffffffffff163373ffffffffffffffffffffffffffffffffffffffff161461036257600080fd5b80600560006101000a81548173ffffffffffffffffffffffffffffffffffffffff021916908373ffffffffffffffffffffffffffffffffffffffff16021790555050565b600560009054906101000a900473ffffffffffffffffffffffffffffffffffffffff1681565b3273ffffffffffffffffffffffffffffffffffffffff163373ffffffffffffffffffffffffffffffffffffffff161461046d576040517f08c379a000000000000000000000000000000000000000000000000000000000815260040180806020018281038252601c8152602001807f646f206e6f7420636f6e766572742066726f6d20636f6e74726163740000000081525060200191505060405180910390fd5b60008060009054906101000a900473ffffffffffffffffffffffffffffffffffffffff1673ffffffffffffffffffffffffffffffffffffffff1663e6a4390584846040518363ffffffff1660e01b8152600401808373ffffffffffffffffffffffffffffffffffffffff1681526020018273ffffffffffffffffffffffffffffffffffffffff1681526020019250505060206040518083038186803b15801561051557600080fd5b505afa158015610529573d6000803e3d6000fd5b505050506040513d602081101561053f57600080fd5b810190808051906020019092919050505090508073ffffffffffffffffffffffffffffffffffffffff1663a9059cbb828373ffffffffffffffffffffffffffffffffffffffff166370a08231306040518263ffffffff1660e01b8152600401808273ffffffffffffffffffffffffffffffffffffffff16815260200191505060206040518083038186803b1580156105d657600080fd5b505afa1580156105ea573d6000803e3d6000fd5b505050506040513d602081101561060057600080fd5b81019080805190602001909291905050506040518363ffffffff1660e01b8152600401808373ffffffffffffffffffffffffffffffffffffffff16815260200182815260200192505050602060405180830381600087803b15801561066457600080fd5b505af1158015610678573d6000803e3d6000fd5b505050506040513d602081101561068e57600080fd5b8101908080519060200190929190505050508073ffffffffffffffffffffffffffffffffffffffff166389afcb44306040518263ffffffff1660e01b8152600401808273ffffffffffffffffffffffffffffffffffffffff1681526020019150506040805180830381600087803b15801561070857600080fd5b505af115801561071c573d6000803e3d6000fd5b505050506040513d604081101561073257600080fd5b8101908080519060200190929190805190602001909291905050505050600061075a83610883565b61076385610883565b01905061076f816115be565b50505050565b60008054906101000a900473ffffffffffffffffffffffffffffffffffffffff1681565b600460009054906101000a900473ffffffffffffffffffffffffffffffffffffffff1673ffffffffffffffffffffffffffffffffffffffff163373ffffffffffffffffffffffffffffffffffffffff16146107f357600080fd5b80600460006101000a81548173ffffffffffffffffffffffffffffffffffffffff021916908373ffffffffffffffffffffffffffffffffffffffff16021790555050565b600460009054906101000a900473ffffffffffffffffffffffffffffffffffffffff1681565b600160009054906101000a900473ffffffffffffffffffffffffffffffffffffffff1681565b6000600260009054906101000a900473ffffffffffffffffffffffffffffffffffffffff1673ffffffffffffffffffffffffffffffffffffffff168273ffffffffffffffffffffffffffffffffffffffff161415610b505760008273ffffffffffffffffffffffffffffffffffffffff166370a08231306040518263ffffffff1660e01b8152600401808273ffffffffffffffffffffffffffffffffffffffff16815260200191505060206040518083038186803b15801561094457600080fd5b505afa158015610958573d6000803e3d6000fd5b505050506040513d602081101561096e57600080fd5b81019080805190602001909291905050509050610abc8360008054906101000a900473ffffffffffffffffffffffffffffffffffffffff1673ffffffffffffffffffffffffffffffffffffffff1663e6a43905600360009054906101000a900473ffffffffffffffffffffffffffffffffffffffff16600260009054906101000a900473ffffffffffffffffffffffffffffffffffffffff166040518363ffffffff1660e01b8152600401808373ffffffffffffffffffffffffffffffffffffffff1681526020018273ffffffffffffffffffffffffffffffffffffffff1681526020019250505060206040518083038186803b158015610a6e57600080fd5b505afa158015610a82573d6000803e3d6000fd5b505050506040513d6020811015610a9857600080fd5b810190808051906020019092919050505060646019850281610ab657fe5b04611ada565b610ad260646019830281610acc57fe5b04611b0a565b610b0c83600560009054906101000a900473ffffffffffffffffffffffffffffffffffffffff1660646019850281610b0657fe5b04611ada565b610b4683600160009054906101000a900473ffffffffffffffffffffffffffffffffffffffff1660646032850281610b4057fe5b04611ada565b60009150506115b9565b600360009054906101000a900473ffffffffffffffffffffffffffffffffffffffff1673ffffffffffffffffffffffffffffffffffffffff168273ffffffffffffffffffffffffffffffffffffffff161415610e115760008273ffffffffffffffffffffffffffffffffffffffff166370a08231306040518263ffffffff1660e01b8152600401808273ffffffffffffffffffffffffffffffffffffffff16815260200191505060206040518083038186803b158015610c0f57600080fd5b505afa158015610c23573d6000803e3d6000fd5b505050506040513d6020811015610c3957600080fd5b81019080805190602001909291905050509050610c8683600460009054906101000a900473ffffffffffffffffffffffffffffffffffffffff1660646019850281610c8057fe5b04611ada565b610cc083600560009054906101000a900473ffffffffffffffffffffffffffffffffffffffff1660646019850281610cba57fe5b04611ada565b610dfb8360008054906101000a900473ffffffffffffffffffffffffffffffffffffffff1673ffffffffffffffffffffffffffffffffffffffff1663e6a43905600360009054906101000a900473ffffffffffffffffffffffffffffffffffffffff16600260009054906101000a900473ffffffffffffffffffffffffffffffffffffffff166040518363ffffffff1660e01b8152600401808373ffffffffffffffffffffffffffffffffffffffff1681526020018273ffffffffffffffffffffffffffffffffffffffff1681526020019250505060206040518083038186803b158015610dad57600080fd5b505afa158015610dc1573d6000803e3d6000fd5b505050506040513d6020811015610dd757600080fd5b810190808051906020019092919050505060646032850281610df557fe5b04611ada565b60646032820281610e0857fe5b049150506115b9565b60008060009054906101000a900473ffffffffffffffffffffffffffffffffffffffff1673ffffffffffffffffffffffffffffffffffffffff1663e6a4390584600360009054906101000a900473ffffffffffffffffffffffffffffffffffffffff166040518363ffffffff1660e01b8152600401808373ffffffffffffffffffffffffffffffffffffffff1681526020018273ffffffffffffffffffffffffffffffffffffffff1681526020019250505060206040518083038186803b158015610edb57600080fd5b505afa158015610eef573d6000803e3d6000fd5b505050506040513d6020811015610f0557600080fd5b81019080805190602001909291905050509050600073ffffffffffffffffffffffffffffffffffffffff168173ffffffffffffffffffffffffffffffffffffffff161415610f575760009150506115b9565b6000808273ffffffffffffffffffffffffffffffffffffffff16630902f1ac6040518163ffffffff1660e01b815260040160606040518083038186803b158015610fa057600080fd5b505afa158015610fb4573d6000803e3d6000fd5b505050506040513d6060811015610fca57600080fd5b81019080805190602001909291908051906020019092919080519060200190929190505050506dffffffffffffffffffffffffffff1691506dffffffffffffffffffffffffffff16915060008373ffffffffffffffffffffffffffffffffffffffff16630dfe16816040518163ffffffff1660e01b815260040160206040518083038186803b15801561105c57600080fd5b505afa158015611070573d6000803e3d6000fd5b505050506040513d602081101561108657600080fd5b810190808051906020019092919050505090506000808773ffffffffffffffffffffffffffffffffffffffff168373ffffffffffffffffffffffffffffffffffffffff16146110d65783856110d9565b84845b9150915060008873ffffffffffffffffffffffffffffffffffffffff166370a08231306040518263ffffffff1660e01b8152600401808273ffffffffffffffffffffffffffffffffffffffff16815260200191505060206040518083038186803b15801561114657600080fd5b505afa15801561115a573d6000803e3d6000fd5b505050506040513d602081101561117057600080fd5b81019080805190602001909291905050509050600061119a6103e38361202690919063ffffffff16565b905060006111b1848361202690919063ffffffff16565b905060006111dc836111ce6103e88961202690919063ffffffff16565b6120ac90919063ffffffff16565b905060008183816111e957fe5b0490506000808e73ffffffffffffffffffffffffffffffffffffffff168a73ffffffffffffffffffffffffffffffffffffffff161461122a5782600061122e565b6000835b9150915061123d8f8e89611ada565b8c73ffffffffffffffffffffffffffffffffffffffff1663022c0d9f838330600067ffffffffffffffff8111801561127457600080fd5b506040519080825280601f01601f1916602001820160405280156112a75781602001600182028036833780820191505090505b506040518563ffffffff1660e01b8152600401808581526020018481526020018373ffffffffffffffffffffffffffffffffffffffff16815260200180602001828103825283818151815260200191508051906020019080838360005b8381101561131f578082015181840152602081019050611304565b50505050905090810190601f16801561134c5780820380516001836020036101000a031916815260200191505b5095505050505050600060405180830381600087803b15801561136e57600080fd5b505af1158015611382573d6000803e3d6000fd5b505050506113e2600360009054906101000a900473ffffffffffffffffffffffffffffffffffffffff16600460009054906101000a900473ffffffffffffffffffffffffffffffffffffffff16606460198702816113dc57fe5b04611ada565b61143e600360009054906101000a900473ffffffffffffffffffffffffffffffffffffffff16600560009054906101000a900473ffffffffffffffffffffffffffffffffffffffff166064601987028161143857fe5b04611ada565b61159b600360009054906101000a900473ffffffffffffffffffffffffffffffffffffffff1660008054906101000a900473ffffffffffffffffffffffffffffffffffffffff1673ffffffffffffffffffffffffffffffffffffffff1663e6a43905600360009054906101000a900473ffffffffffffffffffffffffffffffffffffffff16600260009054906101000a900473ffffffffffffffffffffffffffffffffffffffff166040518363ffffffff1660e01b8152600401808373ffffffffffffffffffffffffffffffffffffffff1681526020018273ffffffffffffffffffffffffffffffffffffffff1681526020019250505060206040518083038186803b15801561154d57600080fd5b505afa158015611561573d6000803e3d6000fd5b505050506040513d602081101561157757600080fd5b81019080805190602001909291905050506064603287028161159557fe5b04611ada565b606460328402816115a857fe5b049d50505050505050505050505050505b919050565b60008060009054906101000a900473ffffffffffffffffffffffffffffffffffffffff1673ffffffffffffffffffffffffffffffffffffffff1663e6a43905600360009054906101000a900473ffffffffffffffffffffffffffffffffffffffff16600260009054906101000a900473ffffffffffffffffffffffffffffffffffffffff166040518363ffffffff1660e01b8152600401808373ffffffffffffffffffffffffffffffffffffffff1681526020018273ffffffffffffffffffffffffffffffffffffffff1681526020019250505060206040518083038186803b1580156116aa57600080fd5b505afa1580156116be573d6000803e3d6000fd5b505050506040513d60208110156116d457600080fd5b810190808051906020019092919050505090506000808273ffffffffffffffffffffffffffffffffffffffff16630902f1ac6040518163ffffffff1660e01b815260040160606040518083038186803b15801561173057600080fd5b505afa158015611744573d6000803e3d6000fd5b505050506040513d606081101561175a57600080fd5b81019080805190602001909291908051906020019092919080519060200190929190505050506dffffffffffffffffffffffffffff1691506dffffffffffffffffffffffffffff16915060008373ffffffffffffffffffffffffffffffffffffffff16630dfe16816040518163ffffffff1660e01b815260040160206040518083038186803b1580156117ec57600080fd5b505afa158015611800573d6000803e3d6000fd5b505050506040513d602081101561181657600080fd5b81019080805190602001909291905050509050600080600360009054906101000a900473ffffffffffffffffffffffffffffffffffffffff1673ffffffffffffffffffffffffffffffffffffffff168373ffffffffffffffffffffffffffffffffffffffff161461188857838561188b565b84845b9150915060006118a66103e38961202690919063ffffffff16565b905060006118bd838361202690919063ffffffff16565b905060006118e8836118da6103e88861202690919063ffffffff16565b6120ac90919063ffffffff16565b905060008183816118f557fe5b049050600080600360009054906101000a900473ffffffffffffffffffffffffffffffffffffffff1673ffffffffffffffffffffffffffffffffffffffff168973ffffffffffffffffffffffffffffffffffffffff16146119585782600061195c565b6000835b915091508b73ffffffffffffffffffffffffffffffffffffffff1663022c0d9f8383600160009054906101000a900473ffffffffffffffffffffffffffffffffffffffff16600067ffffffffffffffff811180156119b957600080fd5b506040519080825280601f01601f1916602001820160405280156119ec5781602001600182028036833780820191505090505b506040518563ffffffff1660e01b8152600401808581526020018481526020018373ffffffffffffffffffffffffffffffffffffffff16815260200180602001828103825283818151815260200191508051906020019080838360005b83811015611a64578082015181840152602081019050611a49565b50505050905090810190601f168015611a915780820380516001836020036101000a031916815260200191505b5095505050505050600060405180830381600087803b158015611ab357600080fd5b505af1158015611ac7573d6000803e3d6000fd5b5050505050505050505050505050505050565b611b0582828573ffffffffffffffffffffffffffffffffffffffff166121349092919063ffffffff16565b505050565b60008060009054906101000a900473ffffffffffffffffffffffffffffffffffffffff1673ffffffffffffffffffffffffffffffffffffffff1663e6a43905600360009054906101000a900473ffffffffffffffffffffffffffffffffffffffff16600260009054906101000a900473ffffffffffffffffffffffffffffffffffffffff166040518363ffffffff1660e01b8152600401808373ffffffffffffffffffffffffffffffffffffffff1681526020018273ffffffffffffffffffffffffffffffffffffffff1681526020019250505060206040518083038186803b158015611bf657600080fd5b505afa158015611c0a573d6000803e3d6000fd5b505050506040513d6020811015611c2057600080fd5b810190808051906020019092919050505090506000808273ffffffffffffffffffffffffffffffffffffffff16630902f1ac6040518163ffffffff1660e01b815260040160606040518083038186803b158015611c7c57600080fd5b505afa158015611c90573d6000803e3d6000fd5b505050506040513d6060811015611ca657600080fd5b81019080805190602001909291908051906020019092919080519060200190929190505050506dffffffffffffffffffffffffffff1691506dffffffffffffffffffffffffffff16915060008373ffffffffffffffffffffffffffffffffffffffff16630dfe16816040518163ffffffff1660e01b815260040160206040518083038186803b158015611d3857600080fd5b505afa158015611d4c573d6000803e3d6000fd5b505050506040513d6020811015611d6257600080fd5b81019080805190602001909291905050509050600080600260009054906101000a900473ffffffffffffffffffffffffffffffffffffffff1673ffffffffffffffffffffffffffffffffffffffff168373ffffffffffffffffffffffffffffffffffffffff1614611dd4578385611dd7565b84845b915091506000611df26103e38961202690919063ffffffff16565b90506000611e09838361202690919063ffffffff16565b90506000611e3483611e266103e88861202690919063ffffffff16565b6120ac90919063ffffffff16565b90506000818381611e4157fe5b049050600080600260009054906101000a900473ffffffffffffffffffffffffffffffffffffffff1673ffffffffffffffffffffffffffffffffffffffff168973ffffffffffffffffffffffffffffffffffffffff1614611ea457826000611ea8565b6000835b915091508b73ffffffffffffffffffffffffffffffffffffffff1663022c0d9f8383600460009054906101000a900473ffffffffffffffffffffffffffffffffffffffff16600067ffffffffffffffff81118015611f0557600080fd5b506040519080825280601f01601f191660200182016040528015611f385781602001600182028036833780820191505090505b506040518563ffffffff1660e01b8152600401808581526020018481526020018373ffffffffffffffffffffffffffffffffffffffff16815260200180602001828103825283818151815260200191508051906020019080838360005b83811015611fb0578082015181840152602081019050611f95565b50505050905090810190601f168015611fdd5780820380516001836020036101000a031916815260200191505b5095505050505050600060405180830381600087803b158015611fff57600080fd5b505af1158015612013573d6000803e3d6000fd5b5050505050505050505050505050505050565b60008083141561203957600090506120a6565b600082840290508284828161204a57fe5b04146120a1576040517f08c379a000000000000000000000000000000000000000000000000000000000815260040180806020018281038252602181526020018061258c6021913960400191505060405180910390fd5b809150505b92915050565b60008082840190508381101561212a576040517f08c379a000000000000000000000000000000000000000000000000000000000815260040180806020018281038252601b8152602001807f536166654d6174683a206164646974696f6e206f766572666c6f77000000000081525060200191505060405180910390fd5b8091505092915050565b6121d18363a9059cbb60e01b8484604051602401808373ffffffffffffffffffffffffffffffffffffffff16815260200182815260200192505050604051602081830303815290604052907bffffffffffffffffffffffffffffffffffffffffffffffffffffffff19166020820180517bffffffffffffffffffffffffffffffffffffffffffffffffffffffff83818316178352505050506121d6565b505050565b6060612238826040518060400160405280602081526020017f5361666545524332303a206c6f772d6c6576656c2063616c6c206661696c65648152508573ffffffffffffffffffffffffffffffffffffffff166122c59092919063ffffffff16565b90506000815111156122c05780806020019051602081101561225957600080fd5b81019080805190602001909291905050506122bf576040517f08c379a000000000000000000000000000000000000000000000000000000000815260040180806020018281038252602a8152602001806125ad602a913960400191505060405180910390fd5b5b505050565b60606122d484846000856122dd565b90509392505050565b606082471015612338576040517f08c379a00000000000000000000000000000000000000000000000000000000081526004018080602001828103825260268152602001806125666026913960400191505060405180910390fd5b61234185612486565b6123b3576040517f08c379a000000000000000000000000000000000000000000000000000000000815260040180806020018281038252601d8152602001807f416464726573733a2063616c6c20746f206e6f6e2d636f6e747261637400000081525060200191505060405180910390fd5b600060608673ffffffffffffffffffffffffffffffffffffffff1685876040518082805190602001908083835b6020831061240357805182526020820191506020810190506020830392506123e0565b6001836020036101000a03801982511681845116808217855250505050505090500191505060006040518083038185875af1925050503d8060008114612465576040519150601f19603f3d011682016040523d82523d6000602084013e61246a565b606091505b509150915061247a828286612499565b92505050949350505050565b600080823b905060008111915050919050565b606083156124a95782905061255e565b6000835111156124bc5782518084602001fd5b816040517f08c379a00000000000000000000000000000000000000000000000000000000081526004018080602001828103825283818151815260200191508051906020019080838360005b83811015612523578082015181840152602081019050612508565b50505050905090810190601f1680156125505780820380516001836020036101000a031916815260200191505b509250505060405180910390fd5b939250505056fe416464726573733a20696e73756666696369656e742062616c616e636520666f722063616c6c536166654d6174683a206d756c7469706c69636174696f6e206f766572666c6f775361666545524332303a204552433230206f7065726174696f6e20646964206e6f742073756363656564a26469706673582212207a9b0629bf4be4efeb8a25af89303b394ad985a950e552d9ad320baaa5c4078264736f6c634300060c0033",
  "immutableReferences": {},
  "source": "pragma solidity 0.6.12;\n\nimport \"@openzeppelin/contracts/token/ERC20/IERC20.sol\";\nimport \"@openzeppelin/contracts/token/ERC20/SafeERC20.sol\";\nimport \"@openzeppelin/contracts/math/SafeMath.sol\";\nimport \"./uniswapv2/interfaces/IUniswapV2ERC20.sol\";\nimport \"./uniswapv2/interfaces/IUniswapV2Pair.sol\";\nimport \"./uniswapv2/interfaces/IUniswapV2Factory.sol\";\n\ncontract SushiMaker {\n    using SafeMath for uint256;\n    using SafeERC20 for IERC20;\n\n    IUniswapV2Factory public factory;\n    address public bar;\n    address public sushi;\n    address public weth;\n    \n    address public checker;\n    address public protocol;\n\n    constructor(IUniswapV2Factory _factory, address _bar, address _sushi, address _weth, address _checker, address _protocol) public {\n        factory = _factory;\n        sushi = _sushi;\n        bar = _bar;\n        weth = _weth;\n        checker = _checker;\n        protocol = _protocol;\n    }\n\n    function convert(address token0, address token1) public {\n        // At least we try to make front-running harder to do.\n        require(msg.sender == tx.origin, \"do not convert from contract\");\n        IUniswapV2Pair pair = IUniswapV2Pair(factory.getPair(token0, token1));\n        pair.transfer(address(pair), pair.balanceOf(address(this)));\n        pair.burn(address(this));\n        uint256 wethAmount = _toWETH(token0) + _toWETH(token1);\n        _toSUSHI(wethAmount);\n    }\n\n    function _toWETH(address token) internal returns (uint256) {\n        if (token == sushi) {\n            uint amount = IERC20(token).balanceOf(address(this));\n            _safeTransfer(token, factory.getPair(weth, sushi), (amount*25)/100);\n            _fromSUSHI((amount*25)/100);\n            _safeTransfer(token, protocol, (amount*25)/100);\n            _safeTransfer(token, bar, (amount*50)/100);\n            return 0;\n        }\n        if (token == weth) {\n            uint amount = IERC20(token).balanceOf(address(this));\n            _safeTransfer(token, checker, (amount*25)/100);\n            _safeTransfer(token, protocol, (amount*25)/100);\n            _safeTransfer(token, factory.getPair(weth, sushi), (amount*50)/100);\n            return (amount*50)/100;\n        }\n        IUniswapV2Pair pair = IUniswapV2Pair(factory.getPair(token, weth));\n        if (address(pair) == address(0)) {\n            return 0;\n        }\n        (uint reserve0, uint reserve1,) = pair.getReserves();\n        address token0 = pair.token0();\n        (uint reserveIn, uint reserveOut) = token0 == token ? (reserve0, reserve1) : (reserve1, reserve0);\n        uint amountIn = IERC20(token).balanceOf(address(this));\n        uint amountInWithFee = amountIn.mul(995);\n        uint numerator = amountInWithFee.mul(reserveOut);\n        uint denominator = reserveIn.mul(1000).add(amountInWithFee);\n        uint amountOut = numerator / denominator;\n        (uint amount0Out, uint amount1Out) = token0 == token ? (uint(0), amountOut) : (amountOut, uint(0));\n        _safeTransfer(token, address(pair), amountIn);\n        pair.swap(amount0Out, amount1Out, address(this), new bytes(0));\n        _safeTransfer(weth, checker, (amountOut*25)/100);\n        _safeTransfer(weth, protocol, (amountOut*25)/100);\n        _safeTransfer(weth, factory.getPair(weth, sushi), (amountOut*50)/100);\n        return (amountOut*50)/100;\n    }\n\n    function _toSUSHI(uint256 amountIn) internal {\n        IUniswapV2Pair pair = IUniswapV2Pair(factory.getPair(weth, sushi));\n        (uint reserve0, uint reserve1,) = pair.getReserves();\n        address token0 = pair.token0();\n        (uint reserveIn, uint reserveOut) = token0 == weth ? (reserve0, reserve1) : (reserve1, reserve0);\n        uint amountInWithFee = amountIn.mul(995);\n        uint numerator = amountInWithFee.mul(reserveOut);\n        uint denominator = reserveIn.mul(1000).add(amountInWithFee);\n        uint amountOut = numerator / denominator;\n        (uint amount0Out, uint amount1Out) = token0 == weth ? (uint(0), amountOut) : (amountOut, uint(0));\n        pair.swap(amount0Out, amount1Out, bar, new bytes(0));\n    }\n\n    function _fromSUSHI(uint256 amountIn) internal {\n        IUniswapV2Pair pair = IUniswapV2Pair(factory.getPair(weth, sushi));\n        (uint reserve0, uint reserve1,) = pair.getReserves();\n        address token0 = pair.token0();\n        (uint reserveIn, uint reserveOut) = token0 == sushi ? (reserve0, reserve1) : (reserve1, reserve0);\n        uint amountInWithFee = amountIn.mul(995);\n        uint numerator = amountInWithFee.mul(reserveOut);\n        uint denominator = reserveIn.mul(1000).add(amountInWithFee);\n        uint amountOut = numerator / denominator;\n        (uint amount0Out, uint amount1Out) = token0 == sushi ? (uint(0), amountOut) : (amountOut, uint(0));\n        pair.swap(amount0Out, amount1Out, checker, new bytes(0));\n    }\n\n    function changeChecker(address _checker) public {\n        require(msg.sender == checker);\n        checker = _checker;\n    }\n    \n    function changeProtocol(address _protocol) public {\n        require(msg.sender == checker);\n        protocol = _protocol;\n    }\n\n    function _safeTransfer(address token, address to, uint256 amount) internal {\n        IERC20(token).safeTransfer(to, amount);\n    }\n}",
  "sourcePath": "/Users/developer/Desktop/HOME/Lemonade/FrontEnds/App/Def/lemonade-app/contracts/SushiMaker.sol",
  "compiler": {
    "name": "solc",
    "version": "0.6.12+commit.27d51765.Emscripten.clang"
  },
  "schemaVersion": "3.4.4",
  "updatedAt": "2022-04-21T17:11:56.270Z",
  "networkType": "ethereum",
  "devdoc": {
    "kind": "dev",
    "methods": {},
    "version": 1
  },
  "userdoc": {
    "kind": "user",
    "methods": {},
    "version": 1
  }
}